{
  "transactions": [
    {
      "hash": "0x62cd8e91367fdd3f6eac7f1d8cdcafc47c5a90499071c39e77a5428cc7eeb8ee",
      "transactionType": "CALL",
      "contractName": "LinkToken",
      "contractAddress": "0x779877a7b0d9e8603169ddbd7836e478b4624789",
      "function": "transferAndCall(address,uint256,bytes)",
      "arguments": [
        "0x9DdfaCa8183c41ad55329BdeeD9F6A8d53168B1B",
        "2000000000000000000",
        "0xfebf6b79211d62bf72b6aca3e7a8245b39a84dc50b538950bfcdd683a933ec86"
      ],
      "transaction": {
        "from": "0x6c6af222e5b1f26040da902e74a880756d57662f",
        "to": "0x779877a7b0d9e8603169ddbd7836e478b4624789",
        "gas": "0x14cbb",
        "value": "0x0",
        "input": "0x4000aea00000000000000000000000009ddfaca8183c41ad55329bdeed9f6a8d53168b1b0000000000000000000000000000000000000000000000001bc16d674ec8000000000000000000000000000000000000000000000000000000000000000000600000000000000000000000000000000000000000000000000000000000000020febf6b79211d62bf72b6aca3e7a8245b39a84dc50b538950bfcdd683a933ec86",
        "nonce": "0x2f",
        "chainId": "0xaa36a7"
      },
      "additionalContracts": [],
      "isFixedGasLimit": false
    }
  ],
  "receipts": [
    {
      "status": "0x1",
      "cumulativeGasUsed": "0x11838e9",
      "logs": [
        {
          "address": "0x779877a7b0d9e8603169ddbd7836e478b4624789",
          "topics": [
            "0xddf252ad1be2c89b69c2b068fc378daa952ba7f163c4a11628f55a4df523b3ef",
            "0x0000000000000000000000006c6af222e5b1f26040da902e74a880756d57662f",
            "0x0000000000000000000000009ddfaca8183c41ad55329bdeed9f6a8d53168b1b"
          ],
          "data": "0x0000000000000000000000000000000000000000000000001bc16d674ec80000",
          "blockHash": "0xd0bd6a068d5c957047c88ddb85c839c88ae28e9caefcfe44b2e308e707d1531a",
          "blockNumber": "0x9b5d5b",
          "blockTimestamp": "0x6981c7b0",
          "transactionHash": "0x62cd8e91367fdd3f6eac7f1d8cdcafc47c5a90499071c39e77a5428cc7eeb8ee",
          "transactionIndex": "0x5c",
          "logIndex": "0xca",
          "removed": false
        },
        {
          "address": "0x779877a7b0d9e8603169ddbd7836e478b4624789",
          "topics": [
            "0xe19260aff97b920c7df27010903aeb9c8d2be5d310a2c67824cf3f15396e4c16",
            "0x0000000000000000000000006c6af222e5b1f26040da902e74a880756d57662f",
            "0x0000000000000000000000009ddfaca8183c41ad55329bdeed9f6a8d53168b1b"
          ],
          "data": "0x0000000000000000000000000000000000000000000000001bc16d674ec8000000000000000000000000000000000000000000000000000000000000000000400000000000000000000000000000000000000000000000000000000000000020febf6b79211d62bf72b6aca3e7a8245b39a84dc50b538950bfcdd683a933ec86",
          "blockHash": "0xd0bd6a068d5c957047c88ddb85c839c88ae28e9caefcfe44b2e308e707d1531a",
          "blockNumber": "0x9b5d5b",
          "blockTimestamp": "0x6981c7b0",
          "transactionHash": "0x62cd8e91367fdd3f6eac7f1d8cdcafc47c5a90499071c39e77a5428cc7eeb8ee",
          "transactionIndex": "0x5c",
          "logIndex": "0xcb",
          "removed": false
        },
        {
          "address": "0x9ddfaca8183c41ad55329bdeed9f6a8d53168b1b",
          "topics": [
            "0x1ced9348ff549fceab2ac57cd3a9de38edaaab274b725ee82c23e8fc8c4eec7a",
            "0xfebf6b79211d62bf72b6aca3e7a8245b39a84dc50b538950bfcdd683a933ec86"
          ],
          "data": "0x0000000000000000000000000000000000000000000000001bc16d674ec800000000000000000000000000000000000000000000000000003782dace9d900000",
          "blockHash": "0xd0bd6a068d5c957047c88ddb85c839c88ae28e9caefcfe44b2e308e707d1531a",
          "blockNumber": "0x9b5d5b",
          "blockTimestamp": "0x6981c7b0",
          "transactionHash": "0x62cd8e91367fdd3f6eac7f1d8cdcafc47c5a90499071c39e77a5428cc7eeb8ee",
          "transactionIndex": "0x5c",
          "logIndex": "0xcc",
          "removed": false
        }
      ],
      "logsBloom": "0x00000004000000000000000000000000000000000020000000000000020000000000000000008000000000000010000000000000000000000000000000000000000000000000000000000008000000000000000000000000000020000020000008000000000000000000000010000000000000000000000080000010000040000000000000000000000000010000800000000020000000000000000000000000000000000000000000000000010000000000000000000000000004000000000000000002000000000000000000000000000000000000000100000000000000000010000000000000800000000000000000000000000000000000002000000000",
      "type": "0x2",
      "transactionHash": "0x62cd8e91367fdd3f6eac7f1d8cdcafc47c5a90499071c39e77a5428cc7eeb8ee",
      "transactionIndex": "0x5c",
      "blockHash": "0xd0bd6a068d5c957047c88ddb85c839c88ae28e9caefcfe44b2e308e707d1531a",
      "blockNumber": "0x9b5d5b",
      "gasUsed": "0xf0e5",
      "effectiveGasPrice": "0x41f6d34d",
      "from": "0x6c6af222e5b1f26040da902e74a880756d57662f",
      "to": "0x779877a7b0d9e8603169ddbd7836e478b4624789",
      "contractAddress": null
    }
  ],
  "libraries": [],
  "pending": [],
  "returns": {},
  "timestamp": 1770112946901,
  "chain": 11155111,
  "commit": "69dd2a0"
}