{
  "transactions": [
    {
      "hash": "0xee2d89bb56ed5e61fe0de1275833d0c8feddbdb3a61319e4de442d02e0863dca",
      "transactionType": "CALL",
      "contractName": "LinkToken",
      "contractAddress": "0x779877a7b0d9e8603169ddbd7836e478b4624789",
      "function": "transferAndCall(address,uint256,bytes)",
      "arguments": [
        "0x9DdfaCa8183c41ad55329BdeeD9F6A8d53168B1B",
        "2000000000000000000",
        "0xfebf6b79211d62bf72b6aca3e7a8245b39a84dc50b538950bfcdd683a933ec86"
      ],
      "transaction": {
        "from": "0x6c6af222e5b1f26040da902e74a880756d57662f",
        "to": "0x779877a7b0d9e8603169ddbd7836e478b4624789",
        "gas": "0x1c1ff",
        "value": "0x0",
        "input": "0x4000aea00000000000000000000000009ddfaca8183c41ad55329bdeed9f6a8d53168b1b0000000000000000000000000000000000000000000000001bc16d674ec8000000000000000000000000000000000000000000000000000000000000000000600000000000000000000000000000000000000000000000000000000000000020febf6b79211d62bf72b6aca3e7a8245b39a84dc50b538950bfcdd683a933ec86",
        "nonce": "0x2e",
        "chainId": "0xaa36a7"
      },
      "additionalContracts": [],
      "isFixedGasLimit": false
    }
  ],
  "receipts": [
    {
      "status": "0x1",
      "cumulativeGasUsed": "0x18beb6a",
      "logs": [
        {
          "address": "0x779877a7b0d9e8603169ddbd7836e478b4624789",
          "topics": [
            "0xddf252ad1be2c89b69c2b068fc378daa952ba7f163c4a11628f55a4df523b3ef",
            "0x0000000000000000000000006c6af222e5b1f26040da902e74a880756d57662f",
            "0x0000000000000000000000009ddfaca8183c41ad55329bdeed9f6a8d53168b1b"
          ],
          "data": "0x0000000000000000000000000000000000000000000000001bc16d674ec80000",
          "blockHash": "0x100a3fae1029610ff3ac640608b8d42d494673c11d4e44f596bad0a889bb8499",
          "blockNumber": "0x9b5cf5",
          "blockTimestamp": "0x6981c258",
          "transactionHash": "0xee2d89bb56ed5e61fe0de1275833d0c8feddbdb3a61319e4de442d02e0863dca",
          "transactionIndex": "0x68",
          "logIndex": "0xb6",
          "removed": false
        },
        {
          "address": "0x779877a7b0d9e8603169ddbd7836e478b4624789",
          "topics": [
            "0xe19260aff97b920c7df27010903aeb9c8d2be5d310a2c67824cf3f15396e4c16",
            "0x0000000000000000000000006c6af222e5b1f26040da902e74a880756d57662f",
            "0x0000000000000000000000009ddfaca8183c41ad55329bdeed9f6a8d53168b1b"
          ],
          "data": "0x0000000000000000000000000000000000000000000000001bc16d674ec8000000000000000000000000000000000000000000000000000000000000000000400000000000000000000000000000000000000000000000000000000000000020febf6b79211d62bf72b6aca3e7a8245b39a84dc50b538950bfcdd683a933ec86",
          "blockHash": "0x100a3fae1029610ff3ac640608b8d42d494673c11d4e44f596bad0a889bb8499",
          "blockNumber": "0x9b5cf5",
          "blockTimestamp": "0x6981c258",
          "transactionHash": "0xee2d89bb56ed5e61fe0de1275833d0c8feddbdb3a61319e4de442d02e0863dca",
          "transactionIndex": "0x68",
          "logIndex": "0xb7",
          "removed": false
        },
        {
          "address": "0x9ddfaca8183c41ad55329bdeed9f6a8d53168b1b",
          "topics": [
            "0x1ced9348ff549fceab2ac57cd3a9de38edaaab274b725ee82c23e8fc8c4eec7a",
            "0xfebf6b79211d62bf72b6aca3e7a8245b39a84dc50b538950bfcdd683a933ec86"
          ],
          "data": "0x00000000000000000000000000000000000000000000000000000000000000000000000000000000000000000000000000000000000000001bc16d674ec80000",
          "blockHash": "0x100a3fae1029610ff3ac640608b8d42d494673c11d4e44f596bad0a889bb8499",
          "blockNumber": "0x9b5cf5",
          "blockTimestamp": "0x6981c258",
          "transactionHash": "0xee2d89bb56ed5e61fe0de1275833d0c8feddbdb3a61319e4de442d02e0863dca",
          "transactionIndex": "0x68",
          "logIndex": "0xb8",
          "removed": false
        }
      ],
      "logsBloom": "0x00000004000000000000000000000000000000000020000000000000020000000000000000008000000000000010000000000000000000000000000000000000000000000000000000000008000000000000000000000000000020000020000008000000000000000000000010000000000000000000000080000010000040000000000000000000000000010000800000000020000000000000000000000000000000000000000000000000010000000000000000000000000004000000000000000002000000000000000000000000000000000000000100000000000000000010000000000000800000000000000000000000000000000000002000000000",
      "type": "0x2",
      "transactionHash": "0xee2d89bb56ed5e61fe0de1275833d0c8feddbdb3a61319e4de442d02e0863dca",
      "transactionIndex": "0x68",
      "blockHash": "0x100a3fae1029610ff3ac640608b8d42d494673c11d4e44f596bad0a889bb8499",
      "blockNumber": "0x9b5cf5",
      "gasUsed": "0x133b1",
      "effectiveGasPrice": "0x3c7775eb",
      "from": "0x6c6af222e5b1f26040da902e74a880756d57662f",
      "to": "0x779877a7b0d9e8603169ddbd7836e478b4624789",
      "contractAddress": null
    }
  ],
  "libraries": [],
  "pending": [],
  "returns": {},
  "timestamp": 1770111578343,
  "chain": 11155111,
  "commit": "69dd2a0"
}